:100000000C942A000C9434000C9434000C943400AA
:100010000C9434000C9434000C9434000C94340090
:100020000C9434000C9434000C9434000C94340080
:100030000C9434000C9434000C9434000C94340070
:100040000C9434000C9434000C9434000C94340060
:100050000C94340011241FBECFE5D8E0DEBFCDBF25
:100060000E9436000C94C5000C9400008AB38B618A
:100070008ABB84B3836384BB87B38E6F87BB81B332
:10008000886181BBD298D598A298A398B8988A988D
:100090008BB382618BBB85B3826185BBC19A939A16
:1000A000D898DB98AD98A898C2989498C398C498AB
:1000B000C598C698C79890989198CA9B0FC0D89A2F
:1000C000D998909AC39A2FEF8DE399E421508040FC
:1000D0009040E1F700C00000C39854C0CD9B0FC012
:1000E000DB9ADC98C69AC39A2FEF8DE399E42150EE
:1000F00080409040E1F700C00000C39843C09B9B44
:100100000FC0AD9AAC98C59AC39A2FEF8DE399E4CE
:10011000215080409040E1F700C00000C39832C0F9
:100120009A9B0FC0A89AA998C79AC39A2FEF8DE3FC
:1001300099E4215080409040E1F700C00000C3984E
:1001400021C0829B0FC0949A9398C49AC39A2FEFB0
:100150008DE399E4215080409040E1F700C0000019
:10016000C39810C0B09BA9CFC29AC198919AC39A64
:100170002FEF8DE399E4215080409040E1F700C0DB
:0E0180000000C39880E090E00895F894FFCF4F
:00000001FF
